:020000040800F2
:1000000078120020B5010008F12800082D2300080F
:10001000F5240008C91E00080B3600080000000087
:10002000000000000000000000000000A12C0008FB
:10003000CD1E00080000000079290008FD2D0008F1
:10004000CF010008CF010008CF010008CF01000850
:10005000CF010008CF010008CF010008CF01000840
:10006000CF010008CF010008CF010008CF01000830
:10007000CF010008CF010008CF010008CF01000820
:10008000CF010008CF010008CF010008CF01000810
:10009000CF010008CF010008CF010008CF01000800
:1000A000CF010008CF010008CF010008CF010008F0
:1000B000612E0008092F0008CF010008CF010008B9
:1000C000CF010008CF010008CF010008CF010008D0
:1000D000CF010008B53000083D310008A932000802
:1000E000CF010008CF010008CF01000800F002F89E
:1000F00000F050F80AA090E8000C82448344AAF172
:100100000107DA4501D100F045F8AFF2090EBAE86F
:100110000F0013F0010F18BFFB1A43F0010318473B
:1001200094440000B4440000103A24BF78C878C159
:10013000FAD8520724BF30C830C144BF04680C60ED
:10014000704700000023002400250026103A28BF35
:1001500078C1FBD8520728BF30C148BF0B60704739
:10016000662904F05181732900F0E1830020704773
:100170001FB500F045FC04000020002103F0B4FC92
:10018000401C60600020002103F098FCE0601FBD6F
:1001900010B510BD00F064FD1146FFF7E9FF03F054
:1001A000F1FB01F007F803B4FFF7F2FF03BC03F023
:1001B00009FB00000948804709480047FEE7FEE7C1
:1001C000FEE7FEE7FEE7FEE7FEE7FEE7FEE7FEE707
:1001D00004480549054A064B70470000012E0008F7
:1001E000ED000008780C002078120020780E002026
:1001F000780E0020704700000FB4044910B503AA20
:10020000029800F099FB10BC5DF814FB1800002068
:100210000FB41CB5074B06AA7B44694600900598AD
:1002200000F05BFB0020694600F06AFB1CBC5DF837
:1002300014FB0000E506000070B50C460546012AD7
:1002400005D02878800600D5EA69002302E0012362
:1002500005E05B1C934202D2E05C0028F9D1A8695A
:10026000E618C01AA861286A184428622846AFF325
:10027000008004E0D5E9012114F8010B9047B44255
:10028000F8D32846AFF3008070BD2DE9F0474FF05A
:10029000000A89460446C0F820A02046E168884745
:1002A000002876D0252806D0D4E901219047206A7D
:1002B000401C2062F1E7E168204600258847C4F829
:1002C0001CA006460027C4F818A02A2E09D03046E4
:1002D00003F071FA38B304EB8708303EC8F81860B1
:1002E00019E059F8041B204604EB87029161E1688C
:1002F0008847012F064618D1E069002820DA25F04A
:1003000020051DE0D8F8180000EB800006EB400047
:100310003038C8F818002046E1688847064603F0E0
:100320004AFA0028EED1012F0AD02E2E08D12046FD
:10033000E16888477F1C0646022F45F02005C4DB94
:10034000A069002803DA404245F00105A061E807F2
:1003500001D025F01005B6B1A6F14100192802D848
:10036000203645F400654A463146204625604D4614
:10037000FFF7F6FE58B1012806D0ED1D25F0070065
:1003800000F1080989E704E005F1040985E7304632
:100390008AE7206ABDE8F08730B505460B462A4655
:1003A00013F8014B12F8010B08B1A042F8D01CB1B0
:1003B000002802D06D1CF1E7284630BD10B5431C63
:1003C00002E010F8011B71B18107FAD14FF0013240
:1003D00002C88C1A8C4314EAC211F9D0C01A0A065A
:1003E00003D0C01E10BDC01A10BD0A0401D0801E6B
:1003F00010BD0902FCD0401E10BD421E12F8013F84
:10040000002BFBD111F8013B002B02F8013BF9D185
:10041000704700004FF0013C50F8042B51F8043BAA
:100420009A4221D1A2EB0C03934313EACC1317D1C8
:1004300050F8042B51F8043B9A4215D1A2EB0C035F
:10044000934313EACC130BD150F8042B51F8043B1F
:100450009A4209D1A2EB0C03934313EACC13DBD0ED
:100460004FF00000704700BFD01A01BAB1FA81F115
:1004700001F0180122FA01F0CB40C1F12001DBB2FA
:10048000C0B2C01A2CFA01F3D11A914311EAC31178
:10049000E6D17047704770477047704710B500F05D
:1004A000B3FA006810BD10B5044600F0ADFA046060
:1004B00010BD70472DE9FF4F0C461E464FF0FF3729
:1004C0008BB0D2E90001DDF860800A908A46C1F362
:1004D0000A5505B93D46002108464FF00000BAF123
:1004E000000F00F4400005DA00EB80004FF44001FB
:1004F00001EA50004FEA9059B9F1010F00DDB94609
:100500000A9850EA4A000ED044F61050A5F2FF3582
:1005100045432F14B8F1000F1ED07542291E1EDD71
:10052000C9F100021CE0B8F1010F4FF0000001D04A
:10053000302103E0F24305E02154401CB042FBDBD4
:1005400030460022002121540B99C1F80880C1E9EE
:1005500000200FB0BDE8F08FBD1B6D1CDEE74A46E2
:1005600000DA694206A800F001FB06AB93E8070039
:1005700003AB83E8070050460A9901F070F88DE854
:100580000700A0F500501F3800900398002D0ADDE9
:1005900042F21F014A460844002303A9039068461B
:1005A00001F01CFB09E0A0F500504A461F3800236B
:1005B00003A90390684601F03BFB8DE807000004A7
:1005C000000C03D04FF0FF30410800E01046B8F1B6
:1005D000000F03D00022009215461EE0751E05D4C0
:1005E00000F016FA303262556D1EF9D5B34601227D
:1005F000084302D000227F1C04E02078302801D17B
:1006000000227F1E002A099784D01DE0112D07DAF1
:1006100000F0FEF9303262556D1C50EA0102F5D14E
:10062000084302D00098C8B10EE00021681E05E022
:10063000235C625C63542254401E491C8142F7DBF8
:10064000AB46A81B401E0990002004F80B000B9835
:10065000099AC0F80880C0E9002B7AE711264FF00C
:10066000000857E72DE9F04F88460446D21D22F0D6
:10067000070191B0D1E90001CDE90A0103F006F8C4
:1006800002460B98C00F01D02D2007E0206881079B
:1006900001D52B2002E0202101EAC000032A0990A5
:1006A00001D0072A05DB03464146204600F0FEF94B
:1006B0000BE12078800601D5E06900E00620B8F162
:1006C000650F814606D0B8F1660F18D0B8F1670FF4
:1006D00070D131E00020B9F1110F009001DB11233E
:1006E00001E009F101030AAA01A90CA8FFF7E2FE43
:1006F000DDE90C70002609F10105834647E0012081
:100700004B4600904FF000470AAA01A90CA8FFF73A
:10071000D1FEDDE90DB00C995D46002610B909F156
:1007200001000D18B9EB050003D4C0F1FF3609F143
:100730000105A5EB09002BE0B9F1010F01DA4FF03B
:1007400001090020B9F1110F0090484601DD112385
:1007500000E003460AAA01A90CA8FFF7ABFEDDE9F9
:100760000C704D4600268346207800070AD4AB451E
:1007700000DA5D4601A8012D04DD411911F8011CC4
:10078000302907D04F4502DA17F1040F04DA0120AF
:1007900082460FE06D1EEEE7002F02DCED1B3E44AB
:1007A00003E0781CA84200DD7D1CB81B00F1010AA3
:1007B0004FF000472078000703D4AA4501DB4FF033
:1007C000FF3A0021B7F1004F0DF143088DF84310B7
:1007D00024D002202B23002F01DA7F422D230A216F
:1007E000021EA0F1010000DC5FB197FBF1FC97FB5A
:1007F000F1F201FB1C7C17460CF1300C08F801CD1E
:10080000EEE7A8F1010003702188090501D5452113
:1008100000E06521A0F1010800F8011C09980FA96A
:10082000A1EB0807FF1D00B10120411901EBEA709F
:10083000A1693844081A401EA0612078C00602D47D
:100840002046AFF30080099828B1D4E901219047F0
:10085000206A401C20622078C00622D52046AFF3D3
:1008600000801EE0002E04DBB34502DD01A8805DA0
:1008700000E03020D4E901219047206A401C20622A
:10088000761CAAF101005FEA000A0AD100F0B8F86C
:10089000C0680168405CD4E901219047206A401C8F
:1008A0002062281EA5F10105DCDC07E0D4E9012166
:1008B00018F8010B9047206A401C2062381EA7F1EF
:1008C0000107F3DC2046AFF30080032011B041E6BE
:1008D00001694A1C02610878704700B58FB0CDE904
:1008E00001310021059105497944CDE903101146F4
:1008F0006846FFF7CAFC0FB000BD0000E5FFFFFF30
:100900000A6802F8010B0A60704710B5436913B119
:10091000AFF3008001E0FFF78FFC012010BD1278DB
:1009200000F124010A7000224A700122EDE71168EB
:100930004FF0FF32E9E70000074B70B50D467B44EE
:10094000FFF7CBFF0446284600F082F910B14FF0C4
:10095000FF3070BD204670BD5B2F00000FB4002338
:1009600000B589B00CA900910B99CB60214B7B4459
:100970000693214B7B44079304236FF00042CDE99B
:1009800001321E4A7A446B4608920246002003F068
:100990009DFD09B05DF814FB70B506464FF0FF30C1
:1009A00015460C46324686B00091CDE901016946F4
:1009B0000020049004A8FFF7D1FF024604982118F4
:1009C00025B108B1084600E02046286004980028B8
:1009D0000DD0002A02DD0098884208D03246081B5C
:1009E00069460094CDE9010404A8FFF7B7FF06B0FB
:1009F00070BD0000BB010000D30100001301000026
:100A000000487047380C002000487047180C002040
:100A100030B5B0F10A024FEA900E71F100034EEAD0
:100A2000817EB0EB0E0061EB91014FEA101E4EEAA1
:100A3000017E10EB0E0041EB11114FEA102E4EEA31
:100A4000016E10EB0E0041EB11214FEA104E4EEA01
:100A5000014E10EB0E0041EB1141401841F1000135
:100A60004FEAD00040EA41704FEAD10110EB800517
:100A70004FEA810444EA907444EB01046D1944EB9D
:100A80000404521BA3414FF0000348BF0A3200D5B3
:100A900030BD401C41F1000130BD10B5044600F0EE
:100AA00005F90068005D00F0010010BD2DE9F0417E
:100AB0001F46044603260168072A01F4006004DB90
:100AC00008B116A505E016A503E008B115A500E0DC
:100AD00015A521F010002060A069C01EA0610FB113
:100AE000401EA0612046AFF300804FB1D4E9012140
:100AF00038469047206A401C2062C01C206206E0F5
:100B0000206AFAE7D4E9012115F8010B9047761E17
:100B1000F8D22046AFF30080BDE8F0814E414E0090
:100B20006E616E00494E4600696E6600426842B1D1
:100B3000016811F8013B23B1521EC0E900121846AA
:100B400070470121C160881E704742685AB1C3686E
:100B5000016843B983688B4205D0491E521CC0E925
:100B60000012002070474FF0FF3070472DE9F0472A
:100B7000814616468AB0354878440DC88DE80D0088
:100B800032487844801C03AC0DC884E80D0041F65F
:100B90009B300844372190FBF1F290FBF1F5A5F171
:100BA000800501FB12041B3C02D56442012000E0D9
:100BB0000020DFF898A080460027FA44AAF1BE0A78
:100BC0000EE0E0070AD03246684607EB47010123F2
:100BD0000AEB810101F02CF88DE8070064107F1CFE
:100BE000002CEED1194F7F44AE3F19E0E80715D035
:100BF00007EB04100DF1180A90E80E008AE80E00C9
:100C0000C068F04201D1981908903246012306A924
:100C100003A801F00DF803AB83E807006D10641C16
:100C2000002DE3D14FF0010332466946B8F1000FC1
:100C300003A802D000F0D2FF01E000F0F9FFC9E9FB
:100C40000001C9F808200AB0BDE8F087083A0000A2
:100C5000007B00F08000704700487047180C0020AF
:100C60007546FFF7F9FFAE4605006946534620F08A
:100C70000700854618B020B5FFF7AAFABDE8204066
:100C80004FF000064FF000074FF000084FF0000B48
:100C900021F00701AC46ACE8C009ACE8C009ACE8FB
:100CA000C009ACE8C0098D467047000010B5FFF7D9
:100CB000A7FE001D10BD00BF312E00002DE9FF4F23
:100CC00006468BB00878FF2806D0491C2D2805D091
:100CD00000244FF0000908E000200CE00124F8E7B0
:100CE00009EB8903491C00EB43090878FF28F7D179
:100CF00014B1C9F100008146107800252C46AA469F
:100D000029462D2801D02B2804D1521C2D2813D080
:100D1000002082468B461078FF280FD04FF0000C41
:100D20000A21521CA5FB017804FB018105FB0C1173
:100D3000C5194BEB0104EEE70120EAE70021084664
:100D40004FF00000BAF1000F02D000EB8000400825
:100D5000C0F38157012F01DD4FF0FF370E9955EA9F
:100D6000040009EB01080BD04FF0020918F5FA7FD7
:100D700016DA4FEACA70002F706008DD012007E024
:100D80004FEACA70C6E900B00FB0BDE8F08F00208E
:100D90003060FFF739FEC0F800901821084616E0D1
:100DA000B8F5FA7F18DD002F02DAF748784401E041
:100DB000F6487844D0E90010C6E9001040EACA704D
:100DC0007060FFF721FEC0F80090142108460FB0B4
:100DD000BDE8F04F03F015BB002108464FF00000BE
:100DE000B8F10001099002DAC7F1000200E03A46CA
:100DF00001DAC8F1000106A8FFF7B8FE06AB93E8D8
:100E0000070003AB83E8070044F23E005BEA0401FD
:100E10000090584604D144F21E012C465D460091D4
:100E2000210C0904014306D10099240444EA154425
:100E30002D041039009104F07F41014306D100993F
:100E4000240244EA15642D020839009104F070412F
:100E5000014306D10099240144EA15742D01091FAC
:100E6000009104F04041014306D10099A40044EAF6
:100E70009574AD00891E009104F00041084304D12F
:100E800000986D196441401E00904FF001033A46EE
:100E90006846B8F1000FCDE9014503A902DD00F075
:100EA000DCFE01E000F0AFFEBAF1000F04460D4693
:100EB00001D084F00044002108464FF00000099959
:100EC00040F2FF77484010F00C0F07D124F00040AB
:100ED000284303D0C4F30A50B84212D1FFF794FD5F
:100EE000C0F80090C4F30A50B8420AD1A848784428
:100EF000D0E90010C6E9001004F00041084370601A
:100F000042E7C6E900543FE72DE9FF4F1F464FF087
:100F1000000A4FF0FF38454691B0D7E90146CDF8B9
:100F20003CA0FFF76DFDC0680168405C1090B96996
:100F300012986D1C8847396A814688470028F6D187
:100F4000B9F1FF3F0AD0002E24F4D06411DDB9F1CD
:100F50002B0F08D0B9F12D0F0BD102E0404615B090
:100F600013E744F48064B96912986D1C8847761EB3
:100F70008146600504A901D52D2000E02B20002E1C
:100F800001F1010B0DF130088DF810003FDDB9F1D2
:100F9000690F08D0B9F1490F05D0B9F16E0F02D031
:100FA000B9F14E0F1CD13B4601A8009580E85002D4
:100FB000DDE912126FF0020003F08CFAC11CCED1F1
:100FC0000EE0B96912986D1C884781461398761E09
:100FD00044F4007405600F98401C002E0F9016DD3D
:100FE000B9F1300FEDD0B9F1780F02D0B9F1580F47
:100FF0000DD10F9801280AD13B46CDE90054DDE917
:101000001212001F029603F063FAC11CA7D11099B7
:1010100089453ED144F0800406E01399681CAAF18A
:10102000010A44F400740860B9696D1C1298761EB8
:10103000884730288146F0D02BE01099894505D1AA
:10104000200603D4761E44F0800418E0484602F0DF
:10105000B2FB08B3761E0DF123018B4544F40074F6
:1010600008D2A9F130000BF8010B200607D5AAF130
:10107000010003E0200602D40AF101008246A00527
:1010800002D51399681C0860B96912986D1C8847CD
:101090008146002ED1DC53E0002E51DDB9F1650F01
:1010A00002D0B9F1450F4BD1A00549D5B9696D1CE6
:1010B0001298761E24F440748847002E81460CDD79
:1010C0002B2804D0B9F12D0F07D144F48074B969ED
:1010D00012986D1C8847761E8146E00501D52D21AA
:1010E00000E02B2108F8011BCDF8008021E0761EDE
:1010F0000DF13901884544F400740CD2A9F1300097
:1011000010F0FF0088F8000002D10099884509D945
:1011100008F1010806E0E00501D51E4801E042F2B1
:101120000F708246B96912986D1C884781461398E2
:101130000560002E04DD484602F03DFB0028D6D1B4
:10114000F96912988847FF2053468BF8000088F809
:10115000000000200A900B9004AA0CA90AA8FFF72F
:10116000ADFDA00502D46FF00100F8E614F0240FE5
:1011700012D0E0071CD13868DDE90A12031D3B607C
:101180000068C0E9001213E02C3800001E3800008F
:10119000E2360000F1D8FFFF0AA9684602F09AFA89
:1011A000E00705D13868009A011D396000680260C7
:1011B0002846D4E610B50446AFF300802046BDE8CB
:1011C0001040FEF7F0BF00002DE9FF4F1F464FF023
:1011D0003C0987B04FF00042DDE9141001F101082D
:1011E000DDF858A002EA40500390002005908346A5
:1011F000054604460490B969461E08988847AAF136
:10120000010A0290BAF1000F3BDD02982E2815D09A
:10121000102100F016FA00282EDB4FF0010B059983
:10122000014317D0B9F1000F0BDB4A46C11700F09C
:10123000F5F905430C43A9F1040905E001200490E8
:101240000BE008B145F0010501200590049820B994
:10125000361D02E0049800B1361FB969089808F1FC
:1012600001088847BBF1000FAAF1010A0290C9D01A
:101270000999C1F80080C5E70298702808D0502865
:1012800006D0F96908988847BBF1000F14D04FE0E9
:10129000002002900120BBF1000F049009D0B96931
:1012A000089808F101088847AAF10109B9F1000F6F
:1012B00007DCF969089888476FF001000BB0BDE8BA
:1012C000F08F2B2804D02D280CD14FF0FF30049044
:1012D000B969089808F101088847A9F10109B9F12D
:1012E000000FE6DD411CE4D00A2100F0AAF9002835
:1012F000DFDB029908F1010801EB810100EB4100FD
:101300000290B969089888470A2100F09AF9099A69
:10131000A9F10109B9F1000FC2F8008001DD002830
:10132000E7DAF969089888470499029800FB016692
:1013300055EA040004D004F04041090002D006E060
:10134000039898E0A40044EA9574AD00B61E04F03A
:101350000041080002D16D196441761E159810F005
:10136000240F03D04FF00B095C4803E04FF028092D
:101370006FF07D008246564507DAAAEB06018944E4
:10138000B9F1410F01DD4FF0410901200021A9F120
:10139000010200F043F9024628400B462140084371
:1013A00001D0012100E00021501E029143F1FF31E4
:1013B00028402140084301D0012000E0002002998C
:1013C000834651EA0B014FD0002108464FF0000040
:1013D000039900F4400039B100EB80004FF4400164
:1013E00000EBD07001EA60008015012802DD4FF0AB
:1013F000FF3000E013D0401C36D0029860B3BBF140
:10140000000F0CD14A460120002100F007F92840C6
:101410002140084301D0012000E00020E0B101207C
:101420004A46002100F0FAF8034640190A46614195
:101430002D1A8C4111D3B9F1400F09DD159810F028
:10144000240F02D0AAF1340603E0AAF1170600E047
:10145000761C00254FF0004406E05B1E42F1FF328F
:1014600020EA030521EA0204CAF10100B04206DACB
:101470001B49039808430190002000900EE0039A56
:10148000C4F3D321E80A0A43164940EA44500A4308
:101490003146CDE90002684602F082F9159810F055
:1014A000240F0BD01598C00715D13868DDE900125C
:1014B000031D3B600068C0E900120CE002A8694609
:1014C00002F008F91598C00705D13868029A011D85
:1014D0003960006802604046F0E6000002FCFFFF51
:1014E0000000F07F0000F03F2DE9FF4F92461D46BF
:1014F00085B04FF00041DDE9124BDDE914727F1E2B
:1015000001EA4B50414940F0FF4940EA01080021FF
:1015100022F020004928049102D04E2828D04CE027
:101520003BA0012607C88DE80700A9690698641C3E
:1015300088477F1E014606D41DF8060018B121F029
:10154000200181420BD0E96906988847032E34D0E8
:10155000082E32D06FF0010009B0BDE8F08F761C84
:10156000032E01D0082EE0D1601CCAF80000DCE791
:10157000A9690698641C88477F1E2AD420F02000A1
:10158000412826D1A9690698641C88477F1E20D46B
:1015900020F020004E281CD1A9690698641C8847B9
:1015A0007F1E48F4002849F48009CAF8004001D49D
:1015B000282806D0E969069888475FEACB7012D0E0
:1015C00022E0A9690698641C88477F1E01D4002880
:1015D00003DAE96906988847BCE72928F1D1641C39
:1015E000CAF80040E9E71BF0240F07D028680499E7
:1015F000031D2B600068C0E9001805E02868021D83
:101600002A600068C0F800902046A5E70000F07F3F
:10161000494E46494E49545900000000B2F120039A
:101620000AD5C2F1200301FA02F120FA03F300FA0D
:1016300002F041EA0301704700FA03F14FF00000A5
:1016400070473A2800D2303820F02002412A01D3D6
:10165000A2F13700884201D34FF0FF3070475FEAB4
:10166000400C08BF91F0000F4FEA8C234FEAC122D3
:1016700043EA51514FEA1C5018BF00F5F0404FEAC1
:10168000300018BF41F000415FEA6C5C00F0298037
:10169000BCF1FF3F08BF40F080407047130C06BF0D
:1016A00012044FF0100C4FF0000C130E04BF120286
:1016B0000CF1080C130F04BF12010CF1040C930F72
:1016C00004BF92000CF1020CD30F04BF52000CF1C6
:1016D000010C11464FF00002A0F11F00A0EB0C001E
:1016E000704711F0004F08BF704731F000413FF4E0
:1016F000D5AF0B0C06BF09044FF0100C4FF0000CD7
:101700000B0E04BF09020CF1080C0B0F04BF0901FA
:101710000CF1040C8B0F04BF89000CF1020CCB0FF1
:1017200004BF49000CF1010CCCF12003A0EB0C002C
:1017300022FA03F302FA0CF241EA030100F101007C
:10174000704720F07F4C80EA030023F07F47ACEB2A
:10175000070303F57C5300F0004003F1FF032DE97C
:1017600080494FEA154B09B44FEA144325EA0B4E62
:1017700024EA03480FF2042606EB132749083E78B3
:101780005FEA320203FB0667C7F5000707FB06F6B0
:101790004FEA54374FEAD64606F1020607FB066CBD
:1017A000CCF1005C4FEA1C472CEA074C07FB06F41F
:1017B0000CFB06F504EB15464FEA961634BF0020E5
:1017C0004FF000404FEAD13706FB07FC4FEA1C4CB4
:1017D0000CFB0BF7D21B03FB0CF761EB07010CFBB7
:1017E0000EF7B0EB074072EB17420CFB08F734BF63
:1017F000A2EB0742B2EB074261EB17414FEA0C4400
:101800004FEA910706FB07FC4FEA1C4C0CFB0BF759
:10181000B0EBC74072EB573203FB0CF734BFA2EBBF
:10182000C742B2EBC74261EB57310CFB0EF7B0EB8E
:10183000C70072EB57720CFB08F734BFA2EBC7026C
:10184000B2EBC70261EB5771039F4FEA816141EA36
:10185000921104EBCC044FEAD1374FEA826206FBC7
:1018600007FC42EA90124FEA80604FEA1C4C0CFBE6
:101870000BF7D21B03FB0CF761EB07010CFB0EF718
:10188000B0EB074072EB17420CFB08F734BFA2EB3A
:101890000742B2EB074261EB17414FEA8C554FEA22
:1018A000910704EB9C2406FB07FC4FEA1C4C0CFB45
:1018B0000BF7B0EBC74072EB573203FB0CF734BFAA
:1018C000A2EBC742B2EBC74261EB57310CFB0EF7FC
:1018D000B0EBC70072EB57720CFB08F734BFA2EBFA
:1018E000C702B2EBC70261EB577115EB4C254FEA0B
:1018F000816141EA92114FEA82624FEAD13742EAAE
:10190000901206FB07FC44F100044FEA80604FEAA6
:101910001C4C0CFB0BF7D21B03FB0CF761EB070114
:101920000CFB0EF7B0EB074072EB17420CFB08F70D
:1019300034BFA2EB0742B2EB074261EB174115EB54
:101940001C154FEA813141EA92414FEA823242EA64
:1019500090424FEA80304FEA0C7644F1000448EAA6
:1019600003434EEA0B484FF0000EB2EB080C71EB4C
:10197000030724BF624639464EEB0E0E4FF0000BB4
:101980000018524149414BEB0B0BB2EB080C71EBC9
:1019900003077BF1000B24BF624639464EEB0E0E67
:1019A0004FF0000B0018524149414BEB0B0BB2EBCF
:1019B000080C71EB03077BF1000B24BF624639462C
:1019C0004EEB0E0E51EA020718BF46F0010616EB69
:1019D0000E7655F1000254F1000103D5BDE88901EE
:1019E000BDE80088BDE88901BDE80048B61952414C
:1019F00041EB0101A3F10103704780807F7E7D7C74
:101A00007B7A7978777676757473727171706F6E90
:101A10006E6D6C6C6B6A6A6968686766666564643B
:101A2000636362616160605F5F5E5E5D5D5C5C5BC5
:101A30005B5A5A5959585857575656555555545434
:101A4000535352525251515050504F4F4F4E4E4D92
:101A50004D4D4C4C4C4B4B4B4A4A4A4949494848DE
:101A6000484747474746464645454544444444431E
:101A700043434342424242414141000046EA064656
:101A8000A3F570534FEA164646EA42564FEAD22271
:101A900042EA415210B54FEAD121A3F1010300F00F
:101AA0002FF820F0004000F1020C00F0004701EB9D
:101AB00000501146BCF5006F40EA070000D210BD8F
:101AC000BAF1000F0AD01CB503B44FF004004FF078
:101AD00004014FF000000FBCBDE810404FF00001C2
:101AE000BBF1010FB9BF04484FF0FF31034800219B
:101AF00040EA070010BD00BFFFFFEF7F0000F07F4E
:101B0000002B9C4630D477002BD01CB54FEA37070A
:101B100003B44FF010004FF01001BAF1000F06D0DF
:101B2000BCF1000FDCBF40F0080040F008014FF0AE
:101B300000000FBCBDE810400BF1010BBBF1010F21
:101B400008BF5FEA170722BF12F1010211F101017C
:101B50004FF0004143F1000300F0004043EA000071
:101B60007047F9D35708D0E746EA064613F1400F0D
:101B70004FEA16461FDD13F1200FDFBF16430A465A
:101B8000002120335B42BED0C3F1200746EA06465F
:101B900002FA07F74FEA164646EA0706C3F120079E
:101BA00022FA03F201FA07F721FA03F14FF00003DA
:101BB00042EA0702A7E746EA020646EA06464FEA75
:101BC000164646EA0106BCBF46EA0646360C4FF00A
:101BD00000034FF000024FF0000194E72DE9804C24
:101BE0009A46934670B491E8380007C831EA400C31
:101BF00048BF34EA430C03D5FFF7A3FDFFF780FF8E
:101C0000F0BCBDE8008C2DE9804C9A46934670B438
:101C100091E8380007C831EA400C48BF34EA430C69
:101C200003D5FFF78EFDFFF729FFF0BCBDE8008C60
:101C30002DE9804C9A46934670B491E8380007C865
:101C400010F0804F08BF13F0804F03D100F01AF856
:101C5000FFF756FFF0BCBDE8008C2DE9804C9A469A
:101C6000934670B491E8380007C810F0804F08BF61
:101C700013F0804F03D100F005F8FFF7FFFEF0BC32
:101C8000BDE8008C20F07F4780EA030023F07F4C02
:101C900007EB0C03A3F57C5300F00040A3F1FE0317
:101CA00092F0000F00F0B38095F0000F00F0778005
:101CB0002DE901494FEA11404FEA144621EA004854
:101CC00000FB06FC24EA064708FB06F607FB08F8BB
:101CD00000FB07F718EB06484CEB164C4FEA124B8B
:101CE00018EB07484FEA15464CEB174022EA0B4E1B
:101CF0000BFB06FC25EA06470EFB06F607FB0EFE6D
:101D00000BFB07F71EEB064E4CEB164C4FF0000694
:101D10001EEB074E4CEB174B18EB0B0840F1000085
:101D200018EB0E0B58EB000840F100008F1A4FF033
:101D300000013CBFC943661B14BFB5EB040C002176
:101D40003CBFC943F61B4FEA17444EEA8E0E27EA02
:101D500004454FEA1C4704FB07622CEA074C05FBCD
:101D600007F70CFB05F604FB0CFC16EB074642EBF1
:101D7000174216EB0C4642EB1C421BEB060658EBD7
:101D80000202414146EA9E0601D5BDE80189B61925
:101D9000524141EB0101A3F10103BDE801894FEA82
:101DA00014454FEA114724EA054621EA074C05FB92
:101DB00007F406FB07F70CFB06F105FB0CFC11EB27
:101DC000074144EB17444FEA124711EB0C4144EB37
:101DD0001C4422EA074C05FB07F206FB07F70CFB45
:101DE00006F605FB0CFC16EB074642EB174216EB1A
:101DF0000C4642EB1C456A1854F1000148BF70477D
:101E0000B619524141EB0101A3F10103704795F06E
:101E1000000F37D04FEA11424FEA144721EA024639
:101E200024EA074C02FB07F106FB07F70CFB06F45C
:101E300002FB0CFC14EB074441EB17414FEA15473A
:101E400014EB0C4441EB1C4125EA074C02FB07F55F
:101E500006FB07F70CFB06F602FB0CFC16EB07462D
:101E600045EB174516EB0C4645EB1C42121951F198
:101E7000000148BF7047B619524141EB0101A3F17F
:101E8000010370474FEA14454FEA114724EA05461B
:101E900021EA074C05FB07F106FB07F70CFB06F2EE
:101EA0004FF0000605FB0CFC12EB074241EB17411B
:101EB00012EB0C4251EB1C4148BF7047921841EBAA
:101EC0000101A3F10103704700BFFEE77047F0B5C1
:101ED00004460D461746002600221CE00026207806
:101EE00095F800C0604510D1012601210AE0605C30
:101EF00015F801C0604502D1701C86B200E003E015
:101F0000481C81B29942F2DB00BF9E4200D104E03E
:101F1000641C501C82B2BA42E0DB00BF9E4202D178
:101F2000501C80B2F0BD0020FCE72DE9F0410246D4
:101F300000250026002000230024002791F803C07C
:101F40000CF00F0591F803C00CF0100CBCF1000F61
:101F500003D091F802C04CEA050591F800C0BCF12D
:101F6000000F31D0146800202BE04FF0010C0CFA68
:101F700000F3B1F800C00CEA03069E4220D18300B2
:101F80004FF00F0C0CFA03F7BC4305FA03FC4CEAC4
:101F9000040491F803C0BCF1280F06D14FF0010CE6
:101FA0000CFA00FCC2F814C00AE091F803C0BCF1BE
:101FB000480F05D14FF0010C0CFA00FCC2F810C01C
:101FC000401C0828D1D31460B1F800C0BCF1FF0F49
:101FD00034DD546800202EE000F1080C4FF00108B9
:101FE00008FA0CF3B1F800C00CEA03069E4221D1B6
:101FF00083004FF00F0C0CFA03F7BC4305FA03FC07
:102000004CEA040491F803C0BCF1280F05D100F19B
:10201000080C08FA0CF8C2F8148091F803C0BCF15F
:10202000480F07D100F1080C4FF0010808FA0CF82E
:10203000C2F81080401C0828CED35460BDE8F0815F
:1020400070B504460D462946204600F06FFA294631
:10205000204600F0C7FA2946204600F083FB70BDF9
:1020600010B500F01DF80446002C01DD204610BD1F
:102070000A2107A000F016FE0222114607A001F077
:10208000C7FA0446002C01DD2046F0E72046EEE7C3
:1020900041542B4750534D443D3100004F4B0000FD
:1020A00010B5082105A000F0FDFD0222114606A092
:1020B00001F0AEFA0446204610BD000041542B4703
:1020C00050533D31000000004F4B00002DE9F04718
:1020D0005F4EDFF880914FF0000A002404E00020FA
:1020E0005D490855601CC4B2642CF8DB5B4890F86D
:1020F0005C00032809DC594890F85C00584951F805
:10210000202058A15A48FEF783F85AA15848FEF7F4
:1021100081F900283BD15BA0FEF76EF80D2160A08D
:1021200000F0C0FD052001F0ADFB0A22022160A0F5
:1021300001F06EFA002841D1022406E05D48015DFD
:10214000A01E5D4A1154601CC4B25A48005D2C2880
:10215000F4D1594801F039FB074601F0DBFC814618
:10216000601CC5B207E05348415D281B401E524A1F
:102170001154681CC5B24F48405D0A28F3D14E483F
:1021800001F023FB074601F0C5FC064616E04BA014
:10219000FEF732F83149486C4C4901F09DFE2F4959
:1021A00048648146D1F84900484901F095FE2B4921
:1021B000C1F8490006460846D0F867A0304601F04D
:1021C000F1FD07463A460B4641A14548FEF720F887
:1021D00043492148FEF711F9484601F0E3FD07465F
:1021E0003A460B463FA13E48FEF712F83C491A48D2
:1021F000FEF703F9504601F0D5FD07463A460B4677
:102200003CA13748FEF704F835491348FEF7F5F8C6
:102210003CA0FDF7F1FF10493DA0FDF7EDFF4FF0A9
:102220007E51304602F046F809D24FF07E514846C2
:1022300002F040F803D2084800F07AF805E036A032
:10224000FDF7DAFF384800F073F8BDE8F0870000CA
:10225000680EE542B6ED1742940100205C000020B4
:1022600044000020466978204D6F64653D25730069
:10227000A0020020466978204D6F64653D46616983
:102280006C0000000D0A475053204E4F20536967E1
:102290006E616C2C6C6F636174696F6E3D31000010
:1022A00041542B4C4F434154494F4E3D31000000A7
:1022B0004F4B0000500B0020900200200D0A4750A9
:1022C00053204F4B205369676E616C000050C34729
:1022D0006C6F6E6769747564653D252E36662600E1
:1022E0005C0200206C617469747564653D252E364E
:1022F00066260000646972656374696F6E3D252E01
:10230000316600000D0A4D6573736567653A00001C
:102310000D0A2573000000000D0A44617461204518
:1023200072726F72000000003A00002000BFFEE7EA
:102330002DE9F041044600254FF4B47722461BA155
:102340002748FDF765FF2648FEF738F886B224498E
:1023500024A0FDF751FF3146214800F0A3FC0520E1
:1023600001F090FA21A0FDF747FF25480078401CB6
:102370002349087008460078022815DD092121A0AC
:1023800000F090FC0522042121A001F041F905464E
:102390003DB121A0FDF730FF00BF00F099FB002800
:1023A000FBD1002016490870BDE8F08141542B484C
:1023B0005454504745543D22687474703A2F2F335B
:1023C000392E39372E3233352E39333A38302F3FC4
:1023D000657865637574653D31302625732200008C
:1023E000F80100200D0A25730D0A00000D0A53653F
:1023F0006E642046696E696E73680D0A0000000005
:102400005600002041542B43474143543F000000F5
:10241000312C2031000000000D0A436F6E6E6563A1
:1024200074204661696C65640D0A000010B50020D7
:10243000124908601E2001F025FA11A0FDF7DCFE0C
:1024400001201449C1F8B40100BF00F041FB00288D
:10245000FBD111A0FDF7D0FE00200849086002E082
:1024600011A0FDF7C9FEFFF7FBFD0028F8D112A06F
:10247000FDF7C2FE01200149086010BDB4012242EF
:1024800041394720537461727420496E69742E2E4D
:102490002E0A0000000022420D0A53494D20496EC9
:1024A0006974204F4B0D0A000D0A47505320496EA6
:1024B00069742E2E2E0D0A000D0A47505320496EC6
:1024C0006974204F4B0D0A0008B50121102000F05F
:1024D00075FA10208DF803004002ADF800000320CB
:1024E0008DF8020069460248FFF71FFD08BD000095
:1024F0000010014000BFFEE70246134610E01078CE
:102500002A2805D01078202802DB10787A2801DDEF
:10251000FF20704710782C2801D1481EC1B2521CF0
:102520000029ECD1D01AC0B2F3E700002DE9F8433E
:102530000546884629A14046FDF72EFF06460221A2
:102540003046FFF7D9FF0446FF2C05D03019694605
:1025500000F059F985F85C00002713E0F81CC1B2BF
:102560003046FFF7C9FF0446FF2C08D030196946F2
:1025700000F049F9C1B205F15000C15500E003E097
:10258000781CC7B20C2FE9DB00BF0F213046FFF7E4
:10259000B3FF0446FF2C05D03019694600F033F92B
:1025A000A5F85D0010213046FFF7A6FF0446FF2C7A
:1025B00005D03019694600F026F9A5F85F00112111
:1025C0003046FFF799FF0446FF2C05D030196946C5
:1025D00000F019F9A5F86100BDE8F88324475047D9
:1025E000534100002DE9FF5F044688465AA140464A
:1025F000FDF7D2FE064603213046FFF77DFF054674
:10260000FF2D44D0701903A900F0FDF807469DF88E
:102610000C00801CC1B20A2000F0EAF8B7FBF0FA07
:10262000504601F033FD60649DF80C00801CC1B27F
:102630000A2000F0DDF8B7FBF0F100FB117A5046FC
:1026400001F024FD81469DF80C00C0F10500C1B2E7
:102650000A2000F0CDF8009001F018FD49460190E5
:1026600001F05CFD83463E4901F036FC82460521BF
:102670000A2000F0BDF8019001F008FD8346616C6E
:1026800001F04CFD5146029001F0B8FB606404215A
:102690003046FFF731FF0546FF2D02D0705D84F80C
:1026A000480005213046FFF727FF0546FF2D46D09D
:1026B000701903A900F0A7F807469DF80C00801CCC
:1026C000C1B20A2000F094F8B7FBF0FA504601F0CE
:1026D000DDFC44F8490F9DF80C00801CC1B20A20B3
:1026E00000F086F8B7FBF0F100FB117A504601F0DC
:1026F000CDFC81469DF80C00C0F10500C1B20A2056
:1027000000F076F8009001F0C1FC8346494601F0E4
:1027100005FD8246124901F0DFFB052102900A20E7
:1027200000F066F8834601F0B1FC8246216801F0B2
:10273000F5FC0190029901F061FB44F8490906217A
:102740003046FFF7D9FE0546FF2D02D0705D84F8B4
:102750004D00BDE8FF9F00004750524D4300000070
:10276000000070422DE9F84304460F461EA138468A
:10277000FDF712FE064607213046FFF7BDFE05466F
:10278000FF2D1ED07019694600F03DF8804601F01B
:1027900065FCC4F86B009DF80000032811DA9DF871
:1027A0000000C0F10300C1B20A2000F021F8814608
:1027B00001F06CFC8046D4F86B1001F0AFFCC4F85B
:1027C0006B0001213046FFF797FE0546FF2D08D02C
:1027D0007019694600F017F8804601F03FFCC4F814
:1027E0006700BDE8F88300002447505654470000B6
:1027F00010B50246012000E050430B1EA1F1010478
:10280000E1B2F9D110BD2DE9F34F81B007463C4646
:1028100000200090834681460026804628E02078EC
:102820002D2802D148F00208641C20782C2802D000
:1028300020782A2800D11CE020782E2803D148F0E7
:102840000108641C09E02078392802DC207830284F
:1028500003DA4FF0000900260BE008F0010010B188
:10286000701CC6B203E009F1010000F0FF09641C0E
:10287000D5E700BF08F0020000B17F1C00250EE084
:10288000A9F10100401BC1B20A20FFF7B1FF795D39
:102890003039009A00FB01200090681CC5B24D45FC
:1028A000EEDB052E00DD05260298067000250EE001
:1028B000701E401BC1B20A20FFF79AFF09F1010107
:1028C0002944795C303900FB01BB681CC5B2B542B4
:1028D000EEDB31460A20FFF78BFF009901FB00BABF
:1028E00008F0020008B1CAF1000A5046BDE8FE8FA8
:1028F0007047000070B5002100230F22C47804B394
:10290000154C246804F4E064C4F5E064210AC1F1C4
:102910000403CA40447804FA03F184781440214344
:1029200009010E4C0678A155047804F01F05012416
:10293000AC4005786D11AD0005F1E025C5F800410A
:1029400009E0047804F01F050124AC40044D06782A
:10295000761145F8264070BD0CED00E000E400E083
:1029600080E100E002490143024A11607047000023
:102970000000FA050CED00E07047000029B1064A9E
:10298000D2690243044BDA6104E0034AD26982430C
:10299000014BDA61704700000010024029B1064A7D
:1029A00012690243044B1A6104E0034A126982432C
:1029B000014B1A61704700000010024029B1064A1D
:1029C00092690243044B9A6104E0034A926982438C
:1029D000014B9A61704700000010024029B1064A7D
:1029E000D2680243044BDA6004E0034AD2688243AF
:1029F000014BDA60704700000010024030B5002142
:102A00000022002400232D4D6D6805F00C0121B13A
:102A1000042905D0082923D105E0294D056022E0CD
:102A2000274D05601FE0254D6D6805F47012234D9C
:102A30006D6805F48034022505EB92421CB9214DE6
:102A4000554305600BE01D4D6D6805F400351DB163
:102A50001C4D5543056002E0194D5543056002E0E9
:102A6000174D056000BF00BF144D6D6805F0F00103
:102A70000909154D6B5C0568DD4045600F4D6D68BB
:102A800005F4E061090A104D6B5C4568DD40856026
:102A90000A4D6D6805F46051C90A0B4D6B5C4568C1
:102AA000DD40C560054D6D6805F44041890B074D5B
:102AB0006B5CC568B5FBF3F5056130BD00100240E5
:102AC00000127A0000093D001E0000202E000020A8
:102AD00010B539480078401C37490870084600781E
:102AE000062801DB00200870072134A000F0DAF886
:102AF0000522022133A000F08BFD0446002C02DDEC
:102B000031A0FDF779FB082133A000F0CBF80522B6
:102B10000A2134A000F07CFD0446002C05DD0522CE
:102B20000A2133A000F074FD0446002C04DD33A01C
:102B3000FDF762FB204610BD0A2134A000F0B2F878
:102B4000052202211FA000F063FD0446002C02DDD7
:102B500031A0FDF751FB192133A000F0A3F80522A5
:102B6000022118A000F054FD0446002C02DD35A01F
:102B7000FDF742FB0C2138A000F094F80522022159
:102B800010A000F045FD0446002C02DD36A0FDF744
:102B900033FB092138A000F085F80522042139A073
:102BA00000F036FD0446002C04DD38A0FDF724FBC0
:102BB0002046C0E72046BEE75400002041542B4386
:102BC000434944004F4B00000D0A4343494420460B
:102BD00061696C656400000041542B435245473FD6
:102BE000000000002B435245473A20312C310000B1
:102BF0002B435245473A20312C3500000D0A4352F1
:102C00004547204661696C656400000041542B43D0
:102C1000474154543D3100000D0A4347415454206C
:102C20004661696C6564000041542B434744434F3F
:102C30004E543D312C224950222C22434D4E4554B6
:102C4000220000000D0A434744434F4E5420466182
:102C5000696C65640000000041542B4347414354B4
:102C60003D312C31000000000D0A43474143542000
:102C70004661696C6564000041542B4347414354ED
:102C80003F000000312C2031000000000D0A436F8E
:102C90006E6E656374204661696C65640D0A0000A0
:102CA000704700002DE9F04105460E4600240E480D
:102CB000FDF784FB074600BF03E000200A490855E2
:102CC000641CBC42F9DB3146284600F0DFFA0D20D7
:102CD00000F0C6FA0A2000F0C3FA4FF4967000F034
:102CE000ABFDBDE8F0810000500B002010B500F0F6
:102CF00001F810BD0CB50020019000903348006829
:102D000040F480303149086000BF3048006800F46A
:102D1000003000900198401C0190009818B901986B
:102D2000B0F5A06FF1D12948006800F4003010B16F
:102D30000120009001E0002000900098012843D17C
:102D40002348006840F010002149086008460068E8
:102D500020F0030008600846006840F002000860A8
:102D60001A48406819494860084640684860084663
:102D7000406840F4806048600846406820F47C1059
:102D800048600846406840F4E8104860084600681B
:102D900040F08070086000BF0C48006800F00070D0
:102DA0000028F9D00948406820F00300074948602E
:102DB0000846406840F00200486000BF0348406891
:102DC00000F00C000828F9D10CBD000000100240F2
:102DD00000200240042808D14FF0E021096941F0A9
:102DE00004014FF0E022116107E04FF0E021096992
:102DF00021F004014FF0E02211617047704700009C
:102E000010B51348006840F00100114908600846F9
:102E10004068104908400E494860084600680E495D
:102E200008400B4908600846006820F480200860CC
:102E30000846406820F4FE0048604FF41F00886098
:102E4000FFF754FF4FF000600449086010BD000018
:102E5000001002400000FFF8FFFFF6FE08ED00E062
:102E600010B50121880700F0B6F860B10648008867
:102E700040F40040044908800121880700F09CF8D4
:102E8000002000F02DF810BD5A0000207FB5054647
:102E90000C4601210846FFF771FDADF80450ADF86E
:102EA00000400020ADF80600ADF8020069464FF082
:102EB000804000F0ADF801221146900700F09CF828
:102EC0001C208DF80C0001208DF80D0002208DF8DB
:102ED0000E0001208DF80F0003A8FFF70BFD7FBD4A
:102EE00010B504464CB100214FF0804000F08DF841
:102EF0000121880700F063F804E000214FF08040D2
:102F000000F05DF810BD000010B50121084800F088
:102F100062F860B10748008840F400400549088025
:102F20000121034800F048F8002000F031F810BDFE
:102F300000040040580000207FB505460C460121E2
:102F40000220FFF71BFDADF80450ADF80040002053
:102F5000ADF80600ADF8020069460C4800F058F8DC
:102F600001221146094800F047F81D208DF80C0099
:102F700001208DF80D0003208DF80E0001208DF842
:102F80000F0003A8FFF7B6FC7FBD0000000400405F
:102F900010B5044644B10021064800F036F801217E
:102FA000044800F00CF803E00021024800F007F8A4
:102FB00010BD000000040040CA430282704721B1E6
:102FC000028842F00102028004E002884FF6FE739C
:102FD0001A400280704730B50246002000230024CA
:102FE000158A05EA0103958905EA010413B10CB1BC
:102FF000012000E0002030BD1AB183890B4383819A
:1030000002E083898B43838170478184704700008D
:10301000002202881D4B98420ED01D4B98420BD0C7
:10302000B0F1804F08D01B4B984205D01A4B984204
:1030300002D01A4B984204D14FF68F731A404B8836
:103040001A43174B984207D0164B984204D04FF6BC
:10305000FF431A40CB881A4302808B8883850B88F4
:1030600003850A4B98420BD0094B984208D00E4B6F
:10307000984205D00D4B984202D00D4B984201D199
:103080000B7A03860123838270470000002C0140E5
:10309000003401400004004000080040000C0040E3
:1030A0000010004000140040004001400044014076
:1030B0000048014010B540F225511D4800F0E4F9E8
:1030C00010B31B4800F09CFAC4B21A48008800F400
:1030D0000040C8B91748008800F4804060B10A2C4D
:1030E00003D000201349088020E01248008840F4F3
:1030F00000401049088019E00D2C06D10D480088C9
:1031000040F480400B49088010E00A480088C0F372
:103110000D0009490C5407480088401C05490880E7
:1031200008460088C72801DD0020088010BD000087
:10313000003801401C000020CB00002010B540F2F8
:103140002551144800F0A0F910B3124800F058FAC5
:10315000C4B211480088C82814DA00214FF080401A
:10316000FFF753FF0C48008810B90120FFF7B8FEA5
:103170000A4809490988445407480088401C064900
:10318000088005E00448008840F4004002490880B7
:1031900010BD0000004400405A000020500B0020E9
:1031A00010B586B0044601210420FFF707FC012179
:1031B0004804FFF7E3FB274800F018F918208DF8C2
:1031C00013000420ADF8100003208DF8120004A9AC
:1031D0002148FEF7AAFE04208DF813000820ADF860
:1031E000100004A91C48FEF7A0FE00940020ADF8D2
:1031F0000400ADF80600ADF80800ADF80C000C2096
:10320000ADF80A006946134800F08EF90121114813
:1032100000F0E0F8012240F225510E4800F05EF97E
:1032200026208DF8140002208DF815008DF8160068
:1032300001208DF8170005A8FFF75CFB41F61F4140
:103240006320FFF723FE002004490880FFF748FEB3
:1032500006B010BD00440040000801405A000020A4
:1032600000BF0949098801F080010029F9D0C1B2E5
:10327000054A121D118000BF0349098801F0400171
:103280000029F9D0704700000044004030B50446E2
:103290000D46002304E0E05CFFF7E2FF581C83B218
:1032A000AB42F8DB30BD000010B540F225511448A8
:1032B00000F0EAF810B3124800F0A2F9C4B21148C5
:1032C0000088B0F57A7F13DA00210F48FFF79DFEE2
:1032D0000C48008810B90120FFF75AFE0B48094935
:1032E0000988445407480088401C0649088005E0C6
:1032F0000448008840F400400249088010BD0000E6
:10330000004800405800002000040040A0060020B3
:1033100010B586B0044601210820FFF74FFB0121BC
:103320008804FFF72BFB284800F060F818208DF880
:1033300013004FF48060ADF8100003208DF81200E8
:1033400004A92248FEF7F1FD04208DF81300400285
:10335000ADF8100004A91D48FEF7E7FD0094002019
:10336000ADF80400ADF80600ADF80800ADF80C00AB
:103370000C20ADF80A006946134800F0D5F8012189
:10338000114800F027F8012240F225510E4800F0C4
:10339000A5F827208DF8140002208DF815000320D1
:1033A0008DF8160001208DF8170005A8FFF7A2FA86
:1033B00041F61F416320FFF7BFFD0020044908804C
:1033C000FFF7E6FD06B010BD00480040000C0140CC
:1033D0005800002021B1828942F40052828104E029
:1033E00082894DF6FF731A408281704710B50446FA
:1033F0002048844209D101218803FFF7EFFA002118
:103400004FF48040FFF7EAFA32E01B48844209D1CA
:1034100001214804FFF7C2FA00214FF40030FFF702
:10342000BDFA25E01548844209D101218804FFF73F
:10343000B5FA00214FF48020FFF7B0FA18E01048E9
:10344000844209D10121C804FFF7A8FA00214FF4F2
:103450000020FFF7A3FA0BE00A48844208D10121BB
:103460000805FFF79BFA00214FF48010FFF796FA4A
:1034700010BD0000003801400044004000480040FA
:10348000004C00400050004070B50246002400236C
:103490000025002040F66A16B14200D100BFC1F3FA
:1034A000421501F01F03012606FA03F3012D02D194
:1034B0009689334006E0022D02D1168A334001E09E
:1034C000968A33400C12012606FA04F4168834401A
:1034D00013B10CB1012000E0002070BDF0B503462F
:1034E000002400260025002040F66A17B94200D1CA
:1034F00000BF1846C1F3421401F01F06012707FA66
:1035000006F5012C01D10C3004E0022C01D1103061
:1035100000E014301AB107682F43076002E0076823
:10352000AF430760F0BD00002DE9F04786B00546C7
:103530000E460024A24600BFA1460027B08900B174
:1035400000BF2F462C8A4CF6FF700440F0880443DD
:103550002C82AC894EF6F3100440B08831890843C0
:10356000718908430443AC81AC8A4FF6FF400440A4
:10357000B0890443AC8201A8FFF740FA1F48874294
:1035800002D1DDF810A001E0DDF80CA0A88900F45C
:10359000004040B10AEBCA0000EB0A103168490054
:1035A000B0FBF1F807E00AEBCA0000EB0A10316843
:1035B0008900B0FBF1F86420B8FBF0F004012009A9
:1035C000642101FB1089A88900F4004040B1322039
:1035D00000EBC900B0FBF1F000F00700044308E085
:1035E000322000EB09106421B0FBF1F000F00F0075
:1035F00004432C8106B0BDE8F0870000003801408C
:1036000001468888C0F30800704700BFFEE700004D
:103610002DE9F05F06460F4614464FF0000A0025DC
:10362000A946AB4624E01748008800F4004088B162
:10363000144890F800800020124908803B4642461A
:1036400031461148FEF743FC00F0FF0ABAF1000FC3
:1036500000DD0FE0642000F0EFF809F1010000F058
:10366000FF09B9F10A0F03DD681CC5B24FF000096C
:10367000A542D8DB00BFA54201DB4FF0010B584645
:10368000BDE8F09F5A000020500B0020490050EA8E
:10369000C12018BF04204A0D18BF40F0010040F2BD
:1036A000FF72B2EB515F08BF40F00200012808BF73
:1036B0000520704740F2013200204FF0E04100F059
:1036C000D7BE0000024A0020110700F0D1BE000062
:1036D00001FDFFFF10B50446D1E9000100F002F83A
:1036E000206010BDF8B504460D466A4600F0E4F8C7
:1036F00000987E30009000281EDC002213462046F1
:10370000294600F04DFA17D0002140F608004FF08E
:10371000000006462046294600F0FCF9044640F623
:10372000080006EA00014FF0000034F0004004BF3A
:103730000220FCF7B8FE29E00098FF2828DB0021D2
:1037400008464FF0000000F44006002213462046D1
:10375000294600F0F1FA8CBF002501250220FCF774
:10376000A2FE4FF0FF4446B1002D0CBF4FF4000005
:103770004FF48000B04218BF084C042108464FF0B7
:103780000000002D04BF84F00040F8BD2046F8BDC5
:1037900020462946BDE8F84000F0BCB9FFFF7F7F16
:1037A00010B504460A46D4E90003194600F0B0F803
:1037B000C4E9000110BD30380A2801D20120704749
:1037C00000207047014600BF704730B583B0044603
:1037D000FCF764FE05460020CDE9000002462146C4
:1037E0006846FDF7D9F82846FCF75DFEDDE90001E3
:1037F00003B030BD10B56FF00400FFF7EBFA0A48D4
:1038000000680A49B0FBF1F00949087008460078E1
:1038100000EB4001C1EBC0104FF6FF7101EAC000A0
:103820000449088010BD00000000002000127A004A
:1038300014000020160000200146114A12884A4355
:103840004FF0E0235A6100229A611A46126942F051
:1038500001021A6100BF4FF0E022106900F001027E
:103860001AB100F48032002AF5D04FF0E02212693C
:1038700022F001024FF0E0231A6100229A617047A2
:103880001600002030B50446002504E04FF47A709D
:10389000FFF7D2FF6D1CA542F8DB30BD00BF054A23
:1038A000128802F04002002AF9D0C2B2014B1B1D5F
:1038B0001A8070470038014010B51446002222607B
:1038C000114A21F000439342A8BF10BD53EA000201
:1038D00008BF10BDB3F5801FA8BF226807DA3622E3
:1038E00000F0C6FD6FF0350221F000432260DFF8E2
:1038F0001CC06FF31E510CEB23531A4441F0FF51CF
:1039000041F00051226010BD0000F07F02FCFFFF7B
:103910002DE9F04106460C4640F2FF75174635EAA0
:1039200014502BD000221346304600F039F925D030
:103930003A463046214600F09BFD06460C4635EAE5
:10394000145010D000221346304600F029F915D14A
:103950000220FCF7A8FDFFF7B5FE0A46214662F3F8
:103960001E01BDE8F0810220FCF79DFDFFF7A2FEDD
:103970000A46214662F31E01BDE8F0813046214629
:10398000BDE8F081FFF736FF4FF4A060FEF7EAFFD5
:103990004FF4E13000F042F84FF4E130FFF700FC63
:1039A0004FF41650FFF7B4FCFEF78EFD01201649C8
:1039B0000860FEF73BFD26E01448008800F4004054
:1039C00008B312480088C0F30E050020104948557E
:1039D00010491148FEF734FBFEF778FB002404E0A1
:1039E00000200C490855601C84B2B4F57A7FF7DBDF
:1039F0000020064908800448006808B9012000E05A
:103A0000002001490860D7E7B40122425800002095
:103A1000B8020020A00600205C00002010B586B08F
:103A20000446012144F20400FEF7C8FF4FF4007081
:103A3000ADF8140003208DF8160018208DF817003B
:103A400005A91C48FEF771FA4FF48060ADF8140028
:103A500004208DF8170005A91648FEF766FA252000
:103A60008DF8000003208DF801008DF80200012080
:103A70008DF803006846FEF73DFF01940020ADF885
:103A80000800ADF80A00ADF80C00ADF810000C20ED
:103A9000ADF80E0001A90848FFF746FD012240F2EB
:103AA00025510548FFF71AFD01210348FFF792FC55
:103AB00006B010BD000801400038014010B50029D3
:103AC0000AD00878002807D005487844FCF7A2FC03
:103AD000002801D0002010BD0248784410BD00002D
:103AE0001A0B0000120B000010B500290AD008784C
:103AF000002807D005487844FCF78CFC002801D04A
:103B0000002010BD0248784410BD00000A0B0000E0
:103B1000020B000021F00042A2F16052B2F5801FBA
:103B200001F0004328BFD2F17F6C0BD95FEA001C83
:103B300043EAC20242EB507018BF704728BF20F022
:103B400001007047B2F5801FBCBF184670474FEAAE
:103B5000410C1CF5001F02D2084600F0A6BB70B550
:103B600000F096F800000089FFF7F6BF4FF0004024
:103B7000A0F580007047000002494FF0000000F0FF
:103B800045BC00BF0000F87F491058BFC1F140415B
:103B90005B1058BFC3F140438B42EFF30080704786
:103BA00051EA030C17D41CF5801F58BFBCF5801FC9
:103BB00000F10680994218BF704708BF90427047D5
:103BC00007D711F5801F58BF13F5801F19D49942EC
:103BD0007047894270471CF5801F08D5BCF5801FCF
:103BE000F7D58B4218BF704708BF824270474FF429
:103BF000001C1CEB410F38BF1CEB430F01D28B4262
:103C0000704770B500F044F8922449004FF000511D
:103C10004FF08053FFF7B8BF51EA030C17D41CF5DF
:103C2000801F58BFBCF5801F00F10680994218BF65
:103C3000704708BF9042704707D711F5801F58BFE3
:103C400013F5801F19D499427047894270471CF5BB
:103C5000801F08D5BCF5801FF7D58B4218BF704771
:103C600008BF824270474FF4001C1CEB410F38BF65
:103C70001CEB430F01D28B42704770B500F008F87F
:103C8000922449004FF000514FF08053FFF77CBF62
:103C90000EF1020E2EF0030E5EF8046B364205D4D0
:103CA000012A43EB030515F5001F12D8012841EB4B
:103CB000010C1CF5001F0CD80ED14FEAD17C15F574
:103CC000001F0CEB4C0C0CF1020C08BF4CEBD37C2E
:103CD00004E04FF0080C01E04FEAD37C0CEB4C05FC
:103CE00026FA05F606F00706B6F1040C06D20EEB2E
:103CF000860CBDE870404CF0010C6047DFE80CF02A
:103D0000090B02024FF000414FF00000A1F5002125
:103D100070BD19461046012851EB010418BFD4F5B7
:103D2000001484BF002001F0004170BD0808A0F518
:103D300000114FEA3101704753EA010C17D41CF50A
:103D4000801F58BFBCF5801F00F106808B4218BF52
:103D5000704708BF8242704707D713F5801F58BFCE
:103D600011F5801F19D48B4270479B4270471CF598
:103D7000801F08D5BCF5801FF7D5994218BF704742
:103D800008BF904270474FF4001C1CEB430F38BF34
:103D90001CEB410F01D2994270470FB40CBC03BC1D
:103DA000FFF76BBF43004FEAD30C4FEA3C0C434094
:103DB0001FBF40070CF1605113F0FE4F70471CF01D
:103DC000006F03D100200CF0004170470CF000435D
:103DD00043EA507010B540EACC0000F020FA00BF72
:103DE000000000924FEA0001FFF7A0BF4FF0004132
:103DF0004FF00000A1F500217047000090EA010F8C
:103E000048BF81F0004100F18E82421A3CBF801A07
:103E100089184FEAD0524FF07F4C1CEA410FA2EBB9
:103E2000D15318BF9CEA026F00F03B804FF0004C6A
:103E30004CEA00204CEA012121FA03FC10EB0C0CA7
:103E40001ED202F1FF325FEA1C2040EBC25038BFA5
:103E500070471CF07F0F4FEA400C18BFBCF17F4F3A
:103E600038BF7047C3F12003994008BF20F001001C
:103E7000BCF17F4F38BF7047A0F1C04000F015BAC9
:103E80004FEA3C00000A40EBC25028BF1CF0FF0F75
:103E90004FEA400CE6D018BFBCF17F4F38BF7047E7
:103EA000EAE79CEA026F05D010EA5C0F08BF00F059
:103EB0000040704710B500F0B2F900BF64FBBE3E91
:103EC000401058BFC0F14040491058BFC1F14041B7
:103ED0008142EFF3008070474FF47F0C1CEAD01250
:103EE0001EBF1CEAD11392EA0C0F93EA0C0F00F0EC
:103EF000858090EA010F48BF42F4807240F4000CC4
:103F000041F400002CF07F4120F07F4000B5814259
:103F1000A2EB03020FF2081CACEB504EC0F1000004
:103F20009EF800E04FEA4E0E00FB0EFC38BF490041
:103F30004FEA2C1C02F5FA020CFB0EF34FEACE1EE0
:103F40004FEA112C4FEAC1210EEB635E42EB224295
:103F50000EFB0CFC4FEA1C5300FB03114FEA112C23
:103F60004FEA01310EFB0CFC4FEADC4C00FB0C115C
:103F7000C14228BF09184CEB03335DF804EB10EB8A
:103F8000410143EBC250B2F57C0F38BF704729D5D1
:103F900012F0F00F1CBF00F1C04000F0004070476D
:103FA000008182838485868788898B8C8D8E8F9112
:103FB0009293959697999A9C9D9FA0A2A3A5A7A836
:103FC000AAACAEB0B2B3B5B7B9BCBEC0C2C5C7C962
:103FD000CCCED1D4D7D9DCDFE2E6E9ECF0F3F7FAC6
:103FE000FE0000004FEA400C0CF1807CBCF17E4FDB
:103FF00028BF7047B0F1C04000F057B990EA010FF8
:104000000CEAD11348BF42F48072624538BF634561
:1040100007D213F47F0F16D080EA010000F00040B1
:10402000704710B500F0FBF8097EFC3E00F005B8C3
:1040300080EA010000F00040704780EA010000F0D3
:10404000004000F032B912F47F0F04BF02487047FD
:1040500080EA010000F029B90000C07F10F00041A3
:1040600048BF4042B0FA80F310FA03F2C3F19D0357
:104070000BD051EAC35101EB1220530638BF7047F1
:1040800000F1010008BF20F001007047B0FA80F392
:1040900010FA03F2C3F19D030AD0D90501EB1220F7
:1040A000530638BF704700F1010008BF20F001003F
:1040B0007047000050EA010C00F113801CF5000F5E
:1040C00058BFBCF5000F01D48842704707D710F5E0
:1040D000000F58BF11F5000F15D488427047894270
:1040E00070471CF5000F04D5BCF5000FF7D58142D1
:1040F00070474FF0807C1CEB400F38BF1CEB410F2A
:1041000001D28142704710B500F089F8922449002D
:104110004FF000504FF08051FFF7D2BE4FF47F0CAC
:104120001CEAD0121EBF1CEAD11392EA0C0F93EACC
:104130000C0F00F0478090EA010F48BF42F48072F4
:104140004FF0004C4CEA00204CEA012102EB030244
:10415000A0FB0113A2F50002002918BF43F00103E0
:104160005B0028BF4FEA330342EB22425FEA132C85
:104170004CEBC2502EBFBCEB436FB2F57C0F7047C7
:104180004FEA036CBCF1004F08BF20F00100B2F50C
:104190007C0F38BF70470BD582F0FF0212F5803FCD
:1041A000C8BF704700F1C040D8BF00F00040704762
:1041B00000F5000C5FEA4C0C48BF7047B0F1C040FE
:1041C00000F073B890EA010F0CEAD11348BF42F433
:1041D0008072624538BF634504D280EA010000F076
:1041E0000040704710B500F01AF800BF8900013E8A
:1041F00000F007B800F009B85FEA410C5FEA1C6CF8
:1042000008D080EA010000F050B85FEA400C5FEA95
:104210001C6CF6D14FF00040A0F5800070470EF105
:10422000020E2EF0030E5EF8044B244204D44FEA33
:104230004102B2F17F4F11D84FEA4003B3F17F4FF3
:104240000CD80ED14FEAD07CB2F17F4F0CEB4C0C66
:104250000CF1020C08BF4CEBD17C04E04FF0080CD1
:1042600001E04FEAD17C0CEB4C0324FA03F404F098
:104270000704B4F1040C06D20EEB840CBDE8104028
:104280004CF0010C6047DFE80CF0070802024FF029
:104290000040A0F5800010BD0846420018BFD2F1D2
:1042A000807288BF00F0004010BDFF2141EAD0506D
:1042B000C005704751EA000C00F113801CF5000F97
:1042C00058BFBCF5000F01D48142704707D711F5E4
:1042D000000F58BF10F5000F15D481427047894276
:1042E00070471CF5000F04D5BCF5000FF7D58842C8
:1042F00070474FF0807C1CEB410F38BF1CEB400F28
:1043000001D28842704780EA010081EA000180EA18
:104310000100FFF7F8BE000090EA010F48BF81F0EE
:1043200000413FF572AD421A04D882F00042A0EB82
:10433000020011444FEAD0524FF07F4C1CEA410F6B
:10434000A2EBD15318BF9CEA026F4AD04FF0004C49
:104350004CEA00204CEA012121FA03FCB0EB0C0CE2
:104360000FD412F0FE0F36D05FEA4C001DD50012BC
:1043700040EBC25038BF70471CF03F0F18BF70476A
:104380000BE0A2F101025FEA1C2040EBC25038BFF3
:1043900070471CF07F0F18BF7047C3F1200399408E
:1043A00014BF401E20F00100704780084FEA12231E
:1043B00008BF7047B0FA80FCA2EB0C02CCF1280CCD
:1043C00060FA0CF093EA122F04BF00EBC250704762
:1043D0004FEAC3707047130A5FEADC1008BF7047EA
:1043E000F6E79CEA026F04D010EA5C0F08BF0020D9
:1043F000704710B5FFF713FF40DFF63E81F0004035
:1044000070474FF000007047FCF72CB90CF00F0319
:10441000092B08BF082000F05F800A2B0BD0082B67
:1044200018BF704708BF1CF0400F0AD04FF00000C3
:104430004FF0000170471CF0400F18BF4FF00040D4
:1044400070471CF0100F08D020F0704300F07F423E
:1044500042EAD3014FEA4370704700F0604021F018
:104460007F4242EA000201F07F4040EA72707047EA
:104470004FF0FF0C4CF4E06C1CEA11531CBF9CEA9B
:10448000030C9445C2BFDA4201EB02517047002B86
:104490000DD0BCF1000F0FD0002A01F00041A4BFE5
:1044A00041F0E04141F07F614FF00000704701F0C2
:1044B00000414FF00000704750EA01334FF09B0C71
:1044C00018BF4CF0806C7FF457AB7047FCF71CBDF5
:1044D000FCF77ABEFDF708B81CF4801F11D01CF45D
:1044E000E02F03D06FEACC31490070474FF04050C5
:1044F000EFF3008222F0704242EA000282F3008869
:1045000070474FF00000704702400000000000A01C
:104510000000000005400000000000C8000000008E
:104520000C4000000000409C00000000194000000A
:104530000020BCBE0000000034400000BFC91B8E3C
:1045400000000004B5400000504BCFD06607E2CF1A
:10455000010000006C4100003E8251AADFEEA7344A
:1045600001000000D9420000DCB5A0E23A301F97FC
:10457000FFFFFFFFB4450000FD25A0C8E9A3C14F20
:10458000FFFFFFFFFF3F0000000000800000000071
:10459000FF3F0000000000800000000020324420A7
:1045A0000000000020334420000000004661696CD8
:1045B0000000000010470008000000205C00000020
:1045C000280100086C4700085C0000201C12000055
:1045D00044010008000000000000F07FFFFFFFFF23
:1045E000FFFFEF7F1C00000043000000F8FFFFFF0B
:1045F0000C0000000E0000000F0000002E00000064
:104600001001000043000000F8FFFFFF00404040A1
:104610004040404040404141414141404040404095
:104620004040404040404040404040404005020241
:104630000202020202020202020202020220202000
:10464000202020202020200202020202020290905C
:10465000909090901010101010101010101010105A
:1046600010101010101010100202020202028888AE
:1046700088888888080808080808080808080808BA
:1046800008080808080808080202020240000000A2
:10469000000000000000000000000000000000001A
:1046A000000000000000000000000000000000000A
:1046B00000000000000000000000000000000000FA
:1046C00000000000000000000000000000000000EA
:1046D00000000000000000000000000000000000DA
:1046E00000000000000000000000000000000000CA
:1046F00000000000000000000000000000000000BA
:1047000000000000000000000000000000000000A9
:1047100000A24A040000000000000000010203049F
:10472000060708090000000000000000000000006B
:104730000000010203040102030406070809020441
:10474000060800006770733D3000446174613D30BD
:1047500000000000AC450008AC4500089C4500087E
:0C476000A445000800000000000000005C
:04000005080001B539
:00000001FF
